{
  "address": "0x0eda7df37785f570560dA74ceCFD435AB60D84a8",
  "abi": [
    {
      "inputs": [
        {
          "internalType": "address",
          "name": "_admin",
          "type": "address"
        }
      ],
      "stateMutability": "nonpayable",
      "type": "constructor"
    },
    {
      "anonymous": false,
      "inputs": [
        {
          "indexed": false,
          "internalType": "address",
          "name": "sender",
          "type": "address"
        },
        {
          "indexed": false,
          "internalType": "address",
          "name": "instantiation",
          "type": "address"
        }
      ],
      "name": "ContractInstantiation",
      "type": "event"
    },
    {
      "inputs": [],
      "name": "Deployer",
      "outputs": [
        {
          "internalType": "address",
          "name": "",
          "type": "address"
        }
      ],
      "stateMutability": "view",
      "type": "function"
    },
    {
      "inputs": [],
      "name": "MSW",
      "outputs": [
        {
          "internalType": "address",
          "name": "",
          "type": "address"
        }
      ],
      "stateMutability": "view",
      "type": "function"
    },
    {
      "inputs": [],
      "name": "TokenManager",
      "outputs": [
        {
          "internalType": "address",
          "name": "",
          "type": "address"
        }
      ],
      "stateMutability": "view",
      "type": "function"
    },
    {
      "inputs": [],
      "name": "TokenManagerLinker",
      "outputs": [
        {
          "internalType": "address",
          "name": "",
          "type": "address"
        }
      ],
      "stateMutability": "view",
      "type": "function"
    },
    {
      "inputs": [
        {
          "internalType": "string",
          "name": "str1",
          "type": "string"
        },
        {
          "internalType": "string",
          "name": "str2",
          "type": "string"
        }
      ],
      "name": "_concatenateStrings",
      "outputs": [
        {
          "internalType": "string",
          "name": "",
          "type": "string"
        }
      ],
      "stateMutability": "pure",
      "type": "function"
    },
    {
      "inputs": [
        {
          "internalType": "string",
          "name": "str1",
          "type": "string"
        },
        {
          "internalType": "string",
          "name": "str2",
          "type": "string"
        }
      ],
      "name": "compareStrings",
      "outputs": [
        {
          "internalType": "bool",
          "name": "",
          "type": "bool"
        }
      ],
      "stateMutability": "pure",
      "type": "function"
    },
    {
      "inputs": [
        {
          "internalType": "string",
          "name": "_chainName",
          "type": "string"
        }
      ],
      "name": "connectToChain",
      "outputs": [
        {
          "internalType": "bool",
          "name": "_isConnected",
          "type": "bool"
        }
      ],
      "stateMutability": "nonpayable",
      "type": "function"
    },
    {
      "inputs": [
        {
          "internalType": "string",
          "name": "_name",
          "type": "string"
        },
        {
          "internalType": "string",
          "name": "_symbol",
          "type": "string"
        },
        {
          "internalType": "uint8",
          "name": "_decimal",
          "type": "uint8"
        },
        {
          "internalType": "string",
          "name": "_fromChainName",
          "type": "string"
        },
        {
          "internalType": "address",
          "name": "_fromToken",
          "type": "address"
        }
      ],
      "name": "deployDappToken",
      "outputs": [
        {
          "internalType": "address",
          "name": "_tokenAddress",
          "type": "address"
        }
      ],
      "stateMutability": "nonpayable",
      "type": "function"
    },
    {
      "inputs": [
        {
          "internalType": "string",
          "name": "_name",
          "type": "string"
        },
        {
          "internalType": "string",
          "name": "_symbol",
          "type": "string"
        },
        {
          "internalType": "uint8",
          "name": "_decimal",
          "type": "uint8"
        },
        {
          "internalType": "address",
          "name": "_fromToken",
          "type": "address"
        }
      ],
      "name": "deployMainnetToken",
      "outputs": [
        {
          "internalType": "address",
          "name": "_tokenAddress",
          "type": "address"
        },
        {
          "internalType": "address",
          "name": "_wrapperTokenAddress",
          "type": "address"
        }
      ],
      "stateMutability": "nonpayable",
      "type": "function"
    },
    {
      "inputs": [
        {
          "internalType": "address",
          "name": "creator",
          "type": "address"
        }
      ],
      "name": "getInstantiationCount",
      "outputs": [
        {
          "internalType": "uint256",
          "name": "",
          "type": "uint256"
        },
        {
          "internalType": "uint256",
          "name": "",
          "type": "uint256"
        }
      ],
      "stateMutability": "view",
      "type": "function"
    },
    {
      "inputs": [
        {
          "internalType": "string",
          "name": "_chainName",
          "type": "string"
        }
      ],
      "name": "isConnected",
      "outputs": [
        {
          "internalType": "bool",
          "name": "_isConnected",
          "type": "bool"
        }
      ],
      "stateMutability": "view",
      "type": "function"
    },
    {
      "inputs": [
        {
          "internalType": "address",
          "name": "",
          "type": "address"
        }
      ],
      "name": "isInstantiation",
      "outputs": [
        {
          "internalType": "bool",
          "name": "",
          "type": "bool"
        }
      ],
      "stateMutability": "view",
      "type": "function"
    },
    {
      "inputs": [
        {
          "internalType": "address",
          "name": "",
          "type": "address"
        }
      ],
      "name": "isInstantiationWrapper",
      "outputs": [
        {
          "internalType": "bool",
          "name": "",
          "type": "bool"
        }
      ],
      "stateMutability": "view",
      "type": "function"
    },
    {
      "inputs": [],
      "name": "latestToken",
      "outputs": [
        {
          "internalType": "contract ERC20",
          "name": "",
          "type": "address"
        }
      ],
      "stateMutability": "view",
      "type": "function"
    },
    {
      "inputs": [
        {
          "internalType": "address",
          "name": "",
          "type": "address"
        },
        {
          "internalType": "uint256",
          "name": "",
          "type": "uint256"
        }
      ],
      "name": "tokens",
      "outputs": [
        {
          "internalType": "address",
          "name": "",
          "type": "address"
        }
      ],
      "stateMutability": "view",
      "type": "function"
    },
    {
      "inputs": [
        {
          "internalType": "address",
          "name": "",
          "type": "address"
        },
        {
          "internalType": "uint256",
          "name": "",
          "type": "uint256"
        }
      ],
      "name": "wrapperTokens",
      "outputs": [
        {
          "internalType": "address",
          "name": "",
          "type": "address"
        }
      ],
      "stateMutability": "view",
      "type": "function"
    }
  ],
  "transactionHash": "0xe5314a84fa2523804633b4ab261e3c1ab83274c7176ffedea7ea4f2e597533f8",
  "args": [
    "0x2c20Ef3fc0248FCA2DC57bcb202F2CAe504A9A66"
  ],
  "numDeployments": 3,
  "solcInputHash": "912fc7c87bf36a2813c33ab363b3ed31",
  "bytecode": "0x608060405273d244519000000000000000000000000000000000600460006101000a81548173ffffffffffffffffffffffffffffffffffffffff021916908373ffffffffffffffffffffffffffffffffffffffff16021790555073d2aaa00800000000000000000000000000000000600a60006101000a81548173ffffffffffffffffffffffffffffffffffffffff021916908373ffffffffffffffffffffffffffffffffffffffff16021790555073d2aaa00500000000000000000000000000000000600b60006101000a81548173ffffffffffffffffffffffffffffffffffffffff021916908373ffffffffffffffffffffffffffffffffffffffff16021790555034801561010f57600080fd5b506040516179413803806179418339818101604052602081101561013257600080fd5b810190808051906020019092919050505080600560006101000a81548173ffffffffffffffffffffffffffffffffffffffff021916908373ffffffffffffffffffffffffffffffffffffffff160217905550600b60009054906101000a900473ffffffffffffffffffffffffffffffffffffffff16600860006101000a81548173ffffffffffffffffffffffffffffffffffffffff021916908373ffffffffffffffffffffffffffffffffffffffff160217905550600a60009054906101000a900473ffffffffffffffffffffffffffffffffffffffff16600960006101000a81548173ffffffffffffffffffffffffffffffffffffffff021916908373ffffffffffffffffffffffffffffffffffffffff160217905550506176e78061025a6000396000f3fe60806040523480156200001157600080fd5b5060043610620001185760003560e01c80638f83847811620000a5578063c018b0da116200006f578063c018b0da1462000b66578063c509c2621462000d3d578063c7a6b0bd1462000d89578063d13182611462000de85762000118565b80638f83847814620008b4578063967c33b31462000916578063b49dd65a1462000962578063bed34bba14620009f35762000118565b80634abf825d11620000e75780634abf825d14620005905780634cc0165c1462000621578063585451fb146200066d57806385fffcd514620008685762000118565b80630a48e427146200011d5780631f5f52ce14620001f65780632f4f331614620002cf5780633f6389ff146200032e575b600080fd5b620001dc600480360360208110156200013557600080fd5b81019080803590602001906401000000008111156200015357600080fd5b8201836020820111156200016657600080fd5b803590602001918460018302840111640100000000831117156200018957600080fd5b91908080601f016020809104026020016040519081016040528093929190818152602001838380828437600081840152601f19601f82011690508083019250505050505050919291929050505062000e34565b604051808215151515815260200191505060405180910390f35b620002b5600480360360208110156200020e57600080fd5b81019080803590602001906401000000008111156200022c57600080fd5b8201836020820111156200023f57600080fd5b803590602001918460018302840111640100000000831117156200026257600080fd5b91908080601f016020809104026020016040519081016040528093929190818152602001838380828437600081840152601f19601f82011690508083019250505050505050919291929050505062000f59565b604051808215151515815260200191505060405180910390f35b6200031460048036036020811015620002e757600080fd5b81019080803573ffffffffffffffffffffffffffffffffffffffff16906020019092919050505062001175565b604051808215151515815260200191505060405180910390f35b6200054e600480360360a08110156200034657600080fd5b81019080803590602001906401000000008111156200036457600080fd5b8201836020820111156200037757600080fd5b803590602001918460018302840111640100000000831117156200039a57600080fd5b91908080601f016020809104026020016040519081016040528093929190818152602001838380828437600081840152601f19601f82011690508083019250505050505050919291929080359060200190640100000000811115620003fe57600080fd5b8201836020820111156200041157600080fd5b803590602001918460018302840111640100000000831117156200043457600080fd5b91908080601f016020809104026020016040519081016040528093929190818152602001838380828437600081840152601f19601f820116905080830192505050505050509192919290803560ff16906020019092919080359060200190640100000000811115620004a557600080fd5b820183602082011115620004b857600080fd5b80359060200191846001830284011164010000000083111715620004db57600080fd5b91908080601f016020809104026020016040519081016040528093929190818152602001838380828437600081840152601f19601f820116905080830192505050505050509192919290803573ffffffffffffffffffffffffffffffffffffffff16906020019092919050505062001195565b604051808273ffffffffffffffffffffffffffffffffffffffff1673ffffffffffffffffffffffffffffffffffffffff16815260200191505060405180910390f35b620005df60048036036040811015620005a857600080fd5b81019080803573ffffffffffffffffffffffffffffffffffffffff16906020019092919080359060200190929190505050620014cf565b604051808273ffffffffffffffffffffffffffffffffffffffff1673ffffffffffffffffffffffffffffffffffffffff16815260200191505060405180910390f35b6200062b6200151b565b604051808273ffffffffffffffffffffffffffffffffffffffff1673ffffffffffffffffffffffffffffffffffffffff16815260200191505060405180910390f35b620007f3600480360360808110156200068557600080fd5b8101908080359060200190640100000000811115620006a357600080fd5b820183602082011115620006b657600080fd5b80359060200191846001830284011164010000000083111715620006d957600080fd5b91908080601f016020809104026020016040519081016040528093929190818152602001838380828437600081840152601f19601f820116905080830192505050505050509192919290803590602001906401000000008111156200073d57600080fd5b8201836020820111156200075057600080fd5b803590602001918460018302840111640100000000831117156200077357600080fd5b91908080601f016020809104026020016040519081016040528093929190818152602001838380828437600081840152601f19601f820116905080830192505050505050509192919290803560ff169060200190929190803573ffffffffffffffffffffffffffffffffffffffff16906020019092919050505062001541565b604051808373ffffffffffffffffffffffffffffffffffffffff1673ffffffffffffffffffffffffffffffffffffffff1681526020018273ffffffffffffffffffffffffffffffffffffffff1673ffffffffffffffffffffffffffffffffffffffff1681526020019250505060405180910390f35b6200087262001b7b565b604051808273ffffffffffffffffffffffffffffffffffffffff1673ffffffffffffffffffffffffffffffffffffffff16815260200191505060405180910390f35b620008f960048036036020811015620008cc57600080fd5b81019080803573ffffffffffffffffffffffffffffffffffffffff16906020019092919050505062001ba1565b604051808381526020018281526020019250505060405180910390f35b6200092062001c33565b604051808273ffffffffffffffffffffffffffffffffffffffff1673ffffffffffffffffffffffffffffffffffffffff16815260200191505060405180910390f35b620009b1600480360360408110156200097a57600080fd5b81019080803573ffffffffffffffffffffffffffffffffffffffff1690602001909291908035906020019092919050505062001c59565b604051808273ffffffffffffffffffffffffffffffffffffffff1673ffffffffffffffffffffffffffffffffffffffff16815260200191505060405180910390f35b62000b4c6004803603604081101562000a0b57600080fd5b810190808035906020019064010000000081111562000a2957600080fd5b82018360208201111562000a3c57600080fd5b8035906020019184600183028401116401000000008311171562000a5f57600080fd5b91908080601f016020809104026020016040519081016040528093929190818152602001838380828437600081840152601f19601f8201169050808301925050505050505091929192908035906020019064010000000081111562000ac357600080fd5b82018360208201111562000ad657600080fd5b8035906020019184600183028401116401000000008311171562000af957600080fd5b91908080601f016020809104026020016040519081016040528093929190818152602001838380828437600081840152601f19601f82011690508083019250505050505050919291929050505062001ca5565b604051808215151515815260200191505060405180910390f35b62000cbf6004803603604081101562000b7e57600080fd5b810190808035906020019064010000000081111562000b9c57600080fd5b82018360208201111562000baf57600080fd5b8035906020019184600183028401116401000000008311171562000bd257600080fd5b91908080601f016020809104026020016040519081016040528093929190818152602001838380828437600081840152601f19601f8201169050808301925050505050505091929192908035906020019064010000000081111562000c3657600080fd5b82018360208201111562000c4957600080fd5b8035906020019184600183028401116401000000008311171562000c6c57600080fd5b91908080601f016020809104026020016040519081016040528093929190818152602001838380828437600081840152601f19601f82011690508083019250505050505050919291929050505062001d98565b6040518080602001828103825283818151815260200191508051906020019080838360005b8381101562000d0157808201518184015260208101905062000ce4565b50505050905090810190601f16801562000d2f5780820380516001836020036101000a031916815260200191505b509250505060405180910390f35b62000d4762001ee4565b604051808273ffffffffffffffffffffffffffffffffffffffff1673ffffffffffffffffffffffffffffffffffffffff16815260200191505060405180910390f35b62000dce6004803603602081101562000da157600080fd5b81019080803573ffffffffffffffffffffffffffffffffffffffff16906020019092919050505062001f0a565b604051808215151515815260200191505060405180910390f35b62000df262001f2a565b604051808273ffffffffffffffffffffffffffffffffffffffff1673ffffffffffffffffffffffffffffffffffffffff16815260200191505060405180910390f35b6000600960009054906101000a900473ffffffffffffffffffffffffffffffffffffffff1673ffffffffffffffffffffffffffffffffffffffff1663041f4c9b836040518263ffffffff1660e01b81526004018080602001828103825283818151815260200191508051906020019080838360005b8381101562000ec657808201518184015260208101905062000ea9565b50505050905090810190601f16801562000ef45780820380516001836020036101000a031916815260200191505b509250505060206040518083038186803b15801562000f1257600080fd5b505afa15801562000f27573d6000803e3d6000fd5b505050506040513d602081101562000f3e57600080fd5b81019080805190602001909291905050509050809050919050565b6000600960009054906101000a900473ffffffffffffffffffffffffffffffffffffffff1673ffffffffffffffffffffffffffffffffffffffff1663990c85e6836040518263ffffffff1660e01b81526004018080602001828103825283818151815260200191508051906020019080838360005b8381101562000feb57808201518184015260208101905062000fce565b50505050905090810190601f168015620010195780820380516001836020036101000a031916815260200191505b5092505050600060405180830381600087803b1580156200103957600080fd5b505af11580156200104e573d6000803e3d6000fd5b50505050600960009054906101000a900473ffffffffffffffffffffffffffffffffffffffff1673ffffffffffffffffffffffffffffffffffffffff1663041f4c9b836040518263ffffffff1660e01b81526004018080602001828103825283818151815260200191508051906020019080838360005b83811015620010e2578082015181840152602081019050620010c5565b50505050905090810190601f168015620011105780820380516001836020036101000a031916815260200191505b509250505060206040518083038186803b1580156200112e57600080fd5b505afa15801562001143573d6000803e3d6000fd5b505050506040513d60208110156200115a57600080fd5b81019080805190602001909291905050509050809050919050565b60006020528060005260406000206000915054906101000a900460ff1681565b6000600460009054906101000a900473ffffffffffffffffffffffffffffffffffffffff1673ffffffffffffffffffffffffffffffffffffffff163373ffffffffffffffffffffffffffffffffffffffff161480620012415750600560009054906101000a900473ffffffffffffffffffffffffffffffffffffffff1673ffffffffffffffffffffffffffffffffffffffff163373ffffffffffffffffffffffffffffffffffffffff16145b620012b4576040517f08c379a000000000000000000000000000000000000000000000000000000000815260040180806020018281038252601c8152602001807f4e6f74204d756c746953696757616c6c65747c4465706c6f7965723a0000000081525060200191505060405180910390fd5b85858533604051620012c69062002c53565b8080602001806020018560ff1660ff1681526020018473ffffffffffffffffffffffffffffffffffffffff1673ffffffffffffffffffffffffffffffffffffffff168152602001838103835287818151815260200191508051906020019080838360005b83811015620013475780820151818401526020810190506200132a565b50505050905090810190601f168015620013755780820380516001836020036101000a031916815260200191505b50838103825286818151815260200191508051906020019080838360005b83811015620013b057808201518184015260208101905062001393565b50505050905090810190601f168015620013de5780820380516001836020036101000a031916815260200191505b509650505050505050604051809103906000f08015801562001404573d6000803e3d6000fd5b50600760006101000a81548173ffffffffffffffffffffffffffffffffffffffff021916908373ffffffffffffffffffffffffffffffffffffffff160217905550600760009054906101000a900473ffffffffffffffffffffffffffffffffffffffff169050620014ab6040518060400160405280601d81526020017f4465706c6f79696e67204552433230207769746820616464726573733a0000008152508262001f50565b620014b68162002088565b620014c38383836200225a565b80905095945050505050565b60016020528160005260406000208181548110620014e957fe5b906000526020600020016000915091509054906101000a900473ffffffffffffffffffffffffffffffffffffffff1681565b600460009054906101000a900473ffffffffffffffffffffffffffffffffffffffff1681565b600080600460009054906101000a900473ffffffffffffffffffffffffffffffffffffffff1673ffffffffffffffffffffffffffffffffffffffff163373ffffffffffffffffffffffffffffffffffffffff161480620015ee5750600560009054906101000a900473ffffffffffffffffffffffffffffffffffffffff1673ffffffffffffffffffffffffffffffffffffffff163373ffffffffffffffffffffffffffffffffffffffff16145b62001661576040517f08c379a000000000000000000000000000000000000000000000000000000000815260040180806020018281038252601c8152602001807f4e6f74204d756c746953696757616c6c65747c4465706c6f7965723a0000000081525060200191505060405180910390fd5b85858533604051620016739062002c53565b8080602001806020018560ff1660ff1681526020018473ffffffffffffffffffffffffffffffffffffffff1673ffffffffffffffffffffffffffffffffffffffff168152602001838103835287818151815260200191508051906020019080838360005b83811015620016f4578082015181840152602081019050620016d7565b50505050905090810190601f168015620017225780820380516001836020036101000a031916815260200191505b50838103825286818151815260200191508051906020019080838360005b838110156200175d57808201518184015260208101905062001740565b50505050905090810190601f1680156200178b5780820380516001836020036101000a031916815260200191505b509650505050505050604051809103906000f080158015620017b1573d6000803e3d6000fd5b50600760006101000a81548173ffffffffffffffffffffffffffffffffffffffff021916908373ffffffffffffffffffffffffffffffffffffffff160217905550600760009054906101000a900473ffffffffffffffffffffffffffffffffffffffff169150620018586040518060400160405280601d81526020017f4465706c6f79696e67204552433230207769746820616464726573733a0000008152508362001f50565b620018638262002088565b620018a56040518060400160405280600781526020017f4d61696e6e65740000000000000000000000000000000000000000000000000081525084846200225a565b81600660006101000a81548173ffffffffffffffffffffffffffffffffffffffff021916908373ffffffffffffffffffffffffffffffffffffffff16021790555060606040518060400160405280600881526020017f5772617070657220000000000000000000000000000000000000000000000000815250905060606040518060400160405280600181526020017f7700000000000000000000000000000000000000000000000000000000000000815250905062001966828962001d98565b62001972828962001d98565b600660009054906101000a900473ffffffffffffffffffffffffffffffffffffffff16604051620019a39062002c61565b8080602001806020018473ffffffffffffffffffffffffffffffffffffffff1673ffffffffffffffffffffffffffffffffffffffff168152602001838103835286818151815260200191508051906020019080838360005b8381101562001a18578082015181840152602081019050620019fb565b50505050905090810190601f16801562001a465780820380516001836020036101000a031916815260200191505b50838103825285818151815260200191508051906020019080838360005b8381101562001a8157808201518184015260208101905062001a64565b50505050905090810190601f16801562001aaf5780820380516001836020036101000a031916815260200191505b5095505050505050604051809103906000f08015801562001ad4573d6000803e3d6000fd5b50600760006101000a81548173ffffffffffffffffffffffffffffffffffffffff021916908373ffffffffffffffffffffffffffffffffffffffff160217905550600760009054906101000a900473ffffffffffffffffffffffffffffffffffffffff16925062001b5f6040518060600160405280602581526020016200768d602591398462001f50565b62001b6a8362002932565b838393509350505094509492505050565b600760009054906101000a900473ffffffffffffffffffffffffffffffffffffffff1681565b600080600160008473ffffffffffffffffffffffffffffffffffffffff1673ffffffffffffffffffffffffffffffffffffffff16815260200190815260200160002080549050600360008573ffffffffffffffffffffffffffffffffffffffff1673ffffffffffffffffffffffffffffffffffffffff1681526020019081526020016000208054905091509150915091565b600560009054906101000a900473ffffffffffffffffffffffffffffffffffffffff1681565b6003602052816000526040600020818154811062001c7357fe5b906000526020600020016000915091509054906101000a900473ffffffffffffffffffffffffffffffffffffffff1681565b6000816040516020018082805190602001908083835b6020831062001ce0578051825260208201915060208101905060208303925062001cbb565b6001836020036101000a03801982511681845116808217855250505050505090500191505060405160208183030381529060405280519060200120836040516020018082805190602001908083835b6020831062001d54578051825260208201915060208101905060208303925062001d2f565b6001836020036101000a0380198251168184511680821785525050505050509050019150506040516020818303038152906040528051906020012014905092915050565b6060808390506060839050606081518351016040519080825280601f01601f19166020018201604052801562001ddd5781602001600182028038833980820191505090505b509050600080905060008090505b845181101562001e5d5784818151811062001e0257fe5b602001015160f81c60f81b83838060010194508151811062001e2057fe5b60200101907effffffffffffffffffffffffffffffffffffffffffffffffffffffffffffff1916908160001a905350808060010191505062001deb565b5060008090505b835181101562001ed65783818151811062001e7b57fe5b602001015160f81c60f81b83838060010194508151811062001e9957fe5b60200101907effffffffffffffffffffffffffffffffffffffffffffffffffffffffffffff1916908160001a905350808060010191505062001e64565b508194505050505092915050565b600b60009054906101000a900473ffffffffffffffffffffffffffffffffffffffff1681565b60026020528060005260406000206000915054906101000a900460ff1681565b600a60009054906101000a900473ffffffffffffffffffffffffffffffffffffffff1681565b62002084828260405160240180806020018373ffffffffffffffffffffffffffffffffffffffff1673ffffffffffffffffffffffffffffffffffffffff168152602001828103825284818151815260200191508051906020019080838360005b8381101562001fcd57808201518184015260208101905062001fb0565b50505050905090810190601f16801562001ffb5780820380516001836020036101000a031916815260200191505b5093505050506040516020818303038152906040527f319af333000000000000000000000000000000000000000000000000000000007bffffffffffffffffffffffffffffffffffffffffffffffffffffffff19166020820180517bffffffffffffffffffffffffffffffffffffffffffffffffffffffff838183161783525050505062002b05565b5050565b60016000808373ffffffffffffffffffffffffffffffffffffffff1673ffffffffffffffffffffffffffffffffffffffff16815260200190815260200160002060006101000a81548160ff021916908315150217905550600160003373ffffffffffffffffffffffffffffffffffffffff1673ffffffffffffffffffffffffffffffffffffffff168152602001908152602001600020819080600181540180825580915050600190039060005260206000200160009091909190916101000a81548173ffffffffffffffffffffffffffffffffffffffff021916908373ffffffffffffffffffffffffffffffffffffffff160217905550620021c06040518060400160405280601e81526020017f52656769737465726564204552433230207769746820616464726573733a00008152508262001f50565b7f4fb057ad4a26ed17a57957fa69c306f11987596069b89521c511fc9a894e61613382604051808373ffffffffffffffffffffffffffffffffffffffff1673ffffffffffffffffffffffffffffffffffffffff1681526020018273ffffffffffffffffffffffffffffffffffffffff1673ffffffffffffffffffffffffffffffffffffffff1681526020019250505060405180910390a150565b60006200229d846040518060400160405280600781526020017f4d61696e6e65740000000000000000000000000000000000000000000000000081525062001ca5565b905080156200240b57600860009054906101000a900473ffffffffffffffffffffffffffffffffffffffff1673ffffffffffffffffffffffffffffffffffffffff1663eafd15c88585856040518463ffffffff1660e01b815260040180806020018473ffffffffffffffffffffffffffffffffffffffff1673ffffffffffffffffffffffffffffffffffffffff1681526020018373ffffffffffffffffffffffffffffffffffffffff1673ffffffffffffffffffffffffffffffffffffffff168152602001828103825285818151815260200191508051906020019080838360005b838110156200239c5780820151818401526020810190506200237f565b50505050905090810190601f168015620023ca5780820380516001836020036101000a031916815260200191505b50945050505050600060405180830381600087803b158015620023ec57600080fd5b505af115801562002401573d6000803e3d6000fd5b50505050620028ec565b6000600960009054906101000a900473ffffffffffffffffffffffffffffffffffffffff1673ffffffffffffffffffffffffffffffffffffffff1663041f4c9b866040518263ffffffff1660e01b81526004018080602001828103825283818151815260200191508051906020019080838360005b838110156200249d57808201518184015260208101905062002480565b50505050905090810190601f168015620024cb5780820380516001836020036101000a031916815260200191505b509250505060206040518083038186803b158015620024e957600080fd5b505afa158015620024fe573d6000803e3d6000fd5b505050506040513d60208110156200251557600080fd5b81019080805190602001909291905050509050806200278a57600960009054906101000a900473ffffffffffffffffffffffffffffffffffffffff1673ffffffffffffffffffffffffffffffffffffffff1663990c85e6866040518263ffffffff1660e01b81526004018080602001828103825283818151815260200191508051906020019080838360005b83811015620025be578082015181840152602081019050620025a1565b50505050905090810190601f168015620025ec5780820380516001836020036101000a031916815260200191505b5092505050600060405180830381600087803b1580156200260c57600080fd5b505af115801562002621573d6000803e3d6000fd5b50505050600860009054906101000a900473ffffffffffffffffffffffffffffffffffffffff1673ffffffffffffffffffffffffffffffffffffffff1663eafd15c88686866040518463ffffffff1660e01b815260040180806020018473ffffffffffffffffffffffffffffffffffffffff1673ffffffffffffffffffffffffffffffffffffffff1681526020018373ffffffffffffffffffffffffffffffffffffffff1673ffffffffffffffffffffffffffffffffffffffff168152602001828103825285818151815260200191508051906020019080838360005b838110156200271b578082015181840152602081019050620026fe565b50505050905090810190601f168015620027495780820380516001836020036101000a031916815260200191505b50945050505050600060405180830381600087803b1580156200276b57600080fd5b505af115801562002780573d6000803e3d6000fd5b50505050620028ea565b600860009054906101000a900473ffffffffffffffffffffffffffffffffffffffff1673ffffffffffffffffffffffffffffffffffffffff1663eafd15c88686866040518463ffffffff1660e01b815260040180806020018473ffffffffffffffffffffffffffffffffffffffff1673ffffffffffffffffffffffffffffffffffffffff1681526020018373ffffffffffffffffffffffffffffffffffffffff1673ffffffffffffffffffffffffffffffffffffffff168152602001828103825285818151815260200191508051906020019080838360005b838110156200288057808201518184015260208101905062002863565b50505050905090810190601f168015620028ae5780820380516001836020036101000a031916815260200191505b50945050505050600060405180830381600087803b158015620028d057600080fd5b505af1158015620028e5573d6000803e3d6000fd5b505050505b505b6200292c6040518060400160405280601381526020017f5f6d6170546f6b656e3a2066696e69736865640000000000000000000000000081525062002b23565b50505050565b6001600260008373ffffffffffffffffffffffffffffffffffffffff1673ffffffffffffffffffffffffffffffffffffffff16815260200190815260200160002060006101000a81548160ff021916908315150217905550600360003373ffffffffffffffffffffffffffffffffffffffff1673ffffffffffffffffffffffffffffffffffffffff168152602001908152602001600020819080600181540180825580915050600190039060005260206000200160009091909190916101000a81548173ffffffffffffffffffffffffffffffffffffffff021916908373ffffffffffffffffffffffffffffffffffffffff16021790555062002a6b6040518060400160405280601e81526020017f52656769737465726564204552433230207769746820616464726573733a00008152508262001f50565b7f4fb057ad4a26ed17a57957fa69c306f11987596069b89521c511fc9a894e61613382604051808373ffffffffffffffffffffffffffffffffffffffff1673ffffffffffffffffffffffffffffffffffffffff1681526020018273ffffffffffffffffffffffffffffffffffffffff1673ffffffffffffffffffffffffffffffffffffffff1681526020019250505060405180910390a150565b62002b208162002b1862002c2662002c47565b63ffffffff16565b50565b62002c23816040516024018080602001828103825283818151815260200191508051906020019080838360005b8381101562002b6d57808201518184015260208101905062002b50565b50505050905090810190601f16801562002b9b5780820380516001836020036101000a031916815260200191505b50925050506040516020818303038152906040527f41304fac000000000000000000000000000000000000000000000000000000007bffffffffffffffffffffffffffffffffffffffffffffffffffffffff19166020820180517bffffffffffffffffffffffffffffffffffffffffffffffffffffffff838183161783525050505062002b05565b50565b60006a636f6e736f6c652e6c6f679050600080835160208501845afa505050565b62002c6f819050919050565b6129718062002c7283390190565b6120aa80620055e383390190565bfefe608060405273d2aaa00500000000000000000000000000000000600760006101000a81548173ffffffffffffffffffffffffffffffffffffffff021916908373ffffffffffffffffffffffffffffffffffffffff16021790555073d244519000000000000000000000000000000000600860006101000a81548173ffffffffffffffffffffffffffffffffffffffff021916908373ffffffffffffffffffffffffffffffffffffffff160217905550348015620000bb57600080fd5b50604051620029713803806200297183398181016040526080811015620000e157600080fd5b81019080805160405193929190846401000000008211156200010257600080fd5b838201915060208201858111156200011957600080fd5b82518660018202830111640100000000821117156200013757600080fd5b8083526020830192505050908051906020019080838360005b838110156200016d57808201518184015260208101905062000150565b50505050905090810190601f1680156200019b5780820380516001836020036101000a031916815260200191505b5060405260200180516040519392919084640100000000821115620001bf57600080fd5b83820191506020820185811115620001d657600080fd5b8251866001820283011164010000000082111715620001f457600080fd5b8083526020830192505050908051906020019080838360005b838110156200022a5780820151818401526020810190506200020d565b50505050905090810190601f168015620002585780820380516001836020036101000a031916815260200191505b5060405260200180519060200190929190805190602001909291905050508383816003908051906020019062000290929190620005b6565b508060049080519060200190620002a9929190620005b6565b506012600560006101000a81548160ff021916908360ff1602179055505050620002d9826200040160201b60201c565b620003106000801b600860009054906101000a900473ffffffffffffffffffffffffffffffffffffffff166200041f60201b60201c565b620003256000801b826200041f60201b60201c565b6200038e60405180807f4d494e5445525f524f4c45000000000000000000000000000000000000000000815250600b0190506040518091039020600760009054906101000a900473ffffffffffffffffffffffffffffffffffffffff166200041f60201b60201c565b620003f760405180807f4255524e45525f524f4c45000000000000000000000000000000000000000000815250600b0190506040518091039020600760009054906101000a900473ffffffffffffffffffffffffffffffffffffffff166200041f60201b60201c565b5050505062000665565b80600560006101000a81548160ff021916908360ff16021790555050565b6200043182826200043560201b60201c565b5050565b620004648160066000858152602001908152602001600020600001620004d960201b62001de01790919060201c565b15620004d5576200047a6200051160201b60201c565b73ffffffffffffffffffffffffffffffffffffffff168173ffffffffffffffffffffffffffffffffffffffff16837f2f8788117e7eff1d82e926ec794901d17c78024a50270940304540a733656f0d60405160405180910390a45b5050565b600062000509836000018373ffffffffffffffffffffffffffffffffffffffff1660001b6200051960201b60201c565b905092915050565b600033905090565b60006200052d83836200059360201b60201c565b620005885782600001829080600181540180825580915050600190039060005260206000200160009091909190915055826000018054905083600101600084815260200190815260200160002081905550600190506200058d565b600090505b92915050565b600080836001016000848152602001908152602001600020541415905092915050565b828054600181600116156101000203166002900490600052602060002090601f016020900481019282601f10620005f957805160ff19168380011785556200062a565b828001600101855582156200062a579182015b82811115620006295782518255916020019190600101906200060c565b5b5090506200063991906200063d565b5090565b6200066291905b808211156200065e57600081600090555060010162000644565b5090565b90565b6122fc80620006756000396000f3fe608060405234801561001057600080fd5b50600436106101735760003560e01c80634cc0165c116100de578063a457c2d711610097578063ca15c87311610071578063ca15c8731461083e578063d539139314610880578063d547741f1461089e578063dd62ed3e146108ec57610173565b8063a457c2d714610728578063a9059cbb1461078e578063c509c262146107f457610173565b80634cc0165c1461050757806370a08231146105515780639010d07c146105a957806391d148541461062157806395d89b4114610687578063a217fddf1461070a57610173565b80632f2ff15d116101305780632f2ff15d14610365578063313ce567146103b357806336568abe146103d7578063395093511461042557806340c10f191461048b57806342966c68146104d957610173565b806306fdde0314610178578063095ea7b3146101fb57806318160ddd1461026157806323b872dd1461027f578063248a9ca314610305578063282c51f314610347575b600080fd5b610180610964565b6040518080602001828103825283818151815260200191508051906020019080838360005b838110156101c05780820151818401526020810190506101a5565b50505050905090810190601f1680156101ed5780820380516001836020036101000a031916815260200191505b509250505060405180910390f35b6102476004803603604081101561021157600080fd5b81019080803573ffffffffffffffffffffffffffffffffffffffff16906020019092919080359060200190929190505050610a06565b604051808215151515815260200191505060405180910390f35b610269610a24565b6040518082815260200191505060405180910390f35b6102eb6004803603606081101561029557600080fd5b81019080803573ffffffffffffffffffffffffffffffffffffffff169060200190929190803573ffffffffffffffffffffffffffffffffffffffff16906020019092919080359060200190929190505050610a2e565b604051808215151515815260200191505060405180910390f35b6103316004803603602081101561031b57600080fd5b8101908080359060200190929190505050610b07565b6040518082815260200191505060405180910390f35b61034f610b27565b6040518082815260200191505060405180910390f35b6103b16004803603604081101561037b57600080fd5b8101908080359060200190929190803573ffffffffffffffffffffffffffffffffffffffff169060200190929190505050610b60565b005b6103bb610bea565b604051808260ff1660ff16815260200191505060405180910390f35b610423600480360360408110156103ed57600080fd5b8101908080359060200190929190803573ffffffffffffffffffffffffffffffffffffffff169060200190929190505050610c01565b005b6104716004803603604081101561043b57600080fd5b81019080803573ffffffffffffffffffffffffffffffffffffffff16906020019092919080359060200190929190505050610c9a565b604051808215151515815260200191505060405180910390f35b6104d7600480360360408110156104a157600080fd5b81019080803573ffffffffffffffffffffffffffffffffffffffff16906020019092919080359060200190929190505050610d4d565b005b610505600480360360208110156104ef57600080fd5b8101908080359060200190929190505050610e0c565b005b61050f610eca565b604051808273ffffffffffffffffffffffffffffffffffffffff1673ffffffffffffffffffffffffffffffffffffffff16815260200191505060405180910390f35b6105936004803603602081101561056757600080fd5b81019080803573ffffffffffffffffffffffffffffffffffffffff169060200190929190505050610ef0565b6040518082815260200191505060405180910390f35b6105df600480360360408110156105bf57600080fd5b810190808035906020019092919080359060200190929190505050610f38565b604051808273ffffffffffffffffffffffffffffffffffffffff1673ffffffffffffffffffffffffffffffffffffffff16815260200191505060405180910390f35b61066d6004803603604081101561063757600080fd5b8101908080359060200190929190803573ffffffffffffffffffffffffffffffffffffffff169060200190929190505050610f6a565b604051808215151515815260200191505060405180910390f35b61068f610f9c565b6040518080602001828103825283818151815260200191508051906020019080838360005b838110156106cf5780820151818401526020810190506106b4565b50505050905090810190601f1680156106fc5780820380516001836020036101000a031916815260200191505b509250505060405180910390f35b61071261103e565b6040518082815260200191505060405180910390f35b6107746004803603604081101561073e57600080fd5b81019080803573ffffffffffffffffffffffffffffffffffffffff16906020019092919080359060200190929190505050611045565b604051808215151515815260200191505060405180910390f35b6107da600480360360408110156107a457600080fd5b81019080803573ffffffffffffffffffffffffffffffffffffffff16906020019092919080359060200190929190505050611112565b604051808215151515815260200191505060405180910390f35b6107fc611130565b604051808273ffffffffffffffffffffffffffffffffffffffff1673ffffffffffffffffffffffffffffffffffffffff16815260200191505060405180910390f35b61086a6004803603602081101561085457600080fd5b8101908080359060200190929190505050611156565b6040518082815260200191505060405180910390f35b61088861117d565b6040518082815260200191505060405180910390f35b6108ea600480360360408110156108b457600080fd5b8101908080359060200190929190803573ffffffffffffffffffffffffffffffffffffffff1690602001909291905050506111b6565b005b61094e6004803603604081101561090257600080fd5b81019080803573ffffffffffffffffffffffffffffffffffffffff169060200190929190803573ffffffffffffffffffffffffffffffffffffffff169060200190929190505050611240565b6040518082815260200191505060405180910390f35b606060038054600181600116156101000203166002900480601f0160208091040260200160405190810160405280929190818152602001828054600181600116156101000203166002900480156109fc5780601f106109d1576101008083540402835291602001916109fc565b820191906000526020600020905b8154815290600101906020018083116109df57829003601f168201915b5050505050905090565b6000610a1a610a136112c7565b84846112cf565b6001905092915050565b6000600254905090565b6000610a3b8484846114c6565b610afc84610a476112c7565b610af7856040518060600160405280602881526020016121e160289139600160008b73ffffffffffffffffffffffffffffffffffffffff1673ffffffffffffffffffffffffffffffffffffffff1681526020019081526020016000206000610aad6112c7565b73ffffffffffffffffffffffffffffffffffffffff1673ffffffffffffffffffffffffffffffffffffffff168152602001908152602001600020546117879092919063ffffffff16565b6112cf565b600190509392505050565b600060066000838152602001908152602001600020600201549050919050565b60405180807f4255524e45525f524f4c45000000000000000000000000000000000000000000815250600b019050604051809103902081565b610b876006600084815260200190815260200160002060020154610b826112c7565b610f6a565b610bdc576040517f08c379a000000000000000000000000000000000000000000000000000000000815260040180806020018281038252602f815260200180612118602f913960400191505060405180910390fd5b610be68282611841565b5050565b6000600560009054906101000a900460ff16905090565b610c096112c7565b73ffffffffffffffffffffffffffffffffffffffff168173ffffffffffffffffffffffffffffffffffffffff1614610c8c576040517f08c379a000000000000000000000000000000000000000000000000000000000815260040180806020018281038252602f815260200180612298602f913960400191505060405180910390fd5b610c9682826118d5565b5050565b6000610d43610ca76112c7565b84610d3e8560016000610cb86112c7565b73ffffffffffffffffffffffffffffffffffffffff1673ffffffffffffffffffffffffffffffffffffffff16815260200190815260200160002060008973ffffffffffffffffffffffffffffffffffffffff1673ffffffffffffffffffffffffffffffffffffffff1681526020019081526020016000205461196990919063ffffffff16565b6112cf565b6001905092915050565b610d8c60405180807f4d494e5445525f524f4c45000000000000000000000000000000000000000000815250600b019050604051809103902033610f6a565b610dfe576040517f08c379a00000000000000000000000000000000000000000000000000000000081526004018080602001828103825260168152602001807f43616c6c6572206973206e6f742061206d696e7465720000000000000000000081525060200191505060405180910390fd5b610e0882826119f1565b5050565b610e4b60405180807f4255524e45525f524f4c45000000000000000000000000000000000000000000815250600b019050604051809103902033610f6a565b610ebd576040517f08c379a00000000000000000000000000000000000000000000000000000000081526004018080602001828103825260168152602001807f43616c6c6572206973206e6f742061206275726e65720000000000000000000081525060200191505060405180910390fd5b610ec73382611bb8565b50565b600860009054906101000a900473ffffffffffffffffffffffffffffffffffffffff1681565b60008060008373ffffffffffffffffffffffffffffffffffffffff1673ffffffffffffffffffffffffffffffffffffffff168152602001908152602001600020549050919050565b6000610f628260066000868152602001908152602001600020600001611d7c90919063ffffffff16565b905092915050565b6000610f948260066000868152602001908152602001600020600001611d9690919063ffffffff16565b905092915050565b606060048054600181600116156101000203166002900480601f0160208091040260200160405190810160405280929190818152602001828054600181600116156101000203166002900480156110345780601f1061100957610100808354040283529160200191611034565b820191906000526020600020905b81548152906001019060200180831161101757829003601f168201915b5050505050905090565b6000801b81565b60006111086110526112c7565b8461110385604051806060016040528060258152602001612273602591396001600061107c6112c7565b73ffffffffffffffffffffffffffffffffffffffff1673ffffffffffffffffffffffffffffffffffffffff16815260200190815260200160002060008a73ffffffffffffffffffffffffffffffffffffffff1673ffffffffffffffffffffffffffffffffffffffff168152602001908152602001600020546117879092919063ffffffff16565b6112cf565b6001905092915050565b600061112661111f6112c7565b84846114c6565b6001905092915050565b600760009054906101000a900473ffffffffffffffffffffffffffffffffffffffff1681565b600061117660066000848152602001908152602001600020600001611dc6565b9050919050565b60405180807f4d494e5445525f524f4c45000000000000000000000000000000000000000000815250600b019050604051809103902081565b6111dd60066000848152602001908152602001600020600201546111d86112c7565b610f6a565b611232576040517f08c379a00000000000000000000000000000000000000000000000000000000081526004018080602001828103825260308152602001806121b16030913960400191505060405180910390fd5b61123c82826118d5565b5050565b6000600160008473ffffffffffffffffffffffffffffffffffffffff1673ffffffffffffffffffffffffffffffffffffffff16815260200190815260200160002060008373ffffffffffffffffffffffffffffffffffffffff1673ffffffffffffffffffffffffffffffffffffffff16815260200190815260200160002054905092915050565b600033905090565b600073ffffffffffffffffffffffffffffffffffffffff168373ffffffffffffffffffffffffffffffffffffffff161415611355576040517f08c379a000000000000000000000000000000000000000000000000000000000815260040180806020018281038252602481526020018061224f6024913960400191505060405180910390fd5b600073ffffffffffffffffffffffffffffffffffffffff168273ffffffffffffffffffffffffffffffffffffffff1614156113db576040517f08c379a00000000000000000000000000000000000000000000000000000000081526004018080602001828103825260228152602001806121696022913960400191505060405180910390fd5b80600160008573ffffffffffffffffffffffffffffffffffffffff1673ffffffffffffffffffffffffffffffffffffffff16815260200190815260200160002060008473ffffffffffffffffffffffffffffffffffffffff1673ffffffffffffffffffffffffffffffffffffffff168152602001908152602001600020819055508173ffffffffffffffffffffffffffffffffffffffff168373ffffffffffffffffffffffffffffffffffffffff167f8c5be1e5ebec7d5bd14f71427d1e84f3dd0314c0f7b2291e5b200ac8c7c3b925836040518082815260200191505060405180910390a3505050565b600073ffffffffffffffffffffffffffffffffffffffff168373ffffffffffffffffffffffffffffffffffffffff16141561154c576040517f08c379a000000000000000000000000000000000000000000000000000000000815260040180806020018281038252602581526020018061222a6025913960400191505060405180910390fd5b600073ffffffffffffffffffffffffffffffffffffffff168273ffffffffffffffffffffffffffffffffffffffff1614156115d2576040517f08c379a00000000000000000000000000000000000000000000000000000000081526004018080602001828103825260238152602001806120f56023913960400191505060405180910390fd5b6115dd838383611ddb565b6116488160405180606001604052806026815260200161218b602691396000808773ffffffffffffffffffffffffffffffffffffffff1673ffffffffffffffffffffffffffffffffffffffff168152602001908152602001600020546117879092919063ffffffff16565b6000808573ffffffffffffffffffffffffffffffffffffffff1673ffffffffffffffffffffffffffffffffffffffff168152602001908152602001600020819055506116db816000808573ffffffffffffffffffffffffffffffffffffffff1673ffffffffffffffffffffffffffffffffffffffff1681526020019081526020016000205461196990919063ffffffff16565b6000808473ffffffffffffffffffffffffffffffffffffffff1673ffffffffffffffffffffffffffffffffffffffff168152602001908152602001600020819055508173ffffffffffffffffffffffffffffffffffffffff168373ffffffffffffffffffffffffffffffffffffffff167fddf252ad1be2c89b69c2b068fc378daa952ba7f163c4a11628f55a4df523b3ef836040518082815260200191505060405180910390a3505050565b6000838311158290611834576040517f08c379a00000000000000000000000000000000000000000000000000000000081526004018080602001828103825283818151815260200191508051906020019080838360005b838110156117f95780820151818401526020810190506117de565b50505050905090810190601f1680156118265780820380516001836020036101000a031916815260200191505b509250505060405180910390fd5b5082840390509392505050565b6118698160066000858152602001908152602001600020600001611de090919063ffffffff16565b156118d1576118766112c7565b73ffffffffffffffffffffffffffffffffffffffff168173ffffffffffffffffffffffffffffffffffffffff16837f2f8788117e7eff1d82e926ec794901d17c78024a50270940304540a733656f0d60405160405180910390a45b5050565b6118fd8160066000858152602001908152602001600020600001611e1090919063ffffffff16565b156119655761190a6112c7565b73ffffffffffffffffffffffffffffffffffffffff168173ffffffffffffffffffffffffffffffffffffffff16837ff6391f5c32d9c69d2a47ea670b442974b53935d1edc7fd64eb21e047a839171b60405160405180910390a45b5050565b6000808284019050838110156119e7576040517f08c379a000000000000000000000000000000000000000000000000000000000815260040180806020018281038252601b8152602001807f536166654d6174683a206164646974696f6e206f766572666c6f77000000000081525060200191505060405180910390fd5b8091505092915050565b600073ffffffffffffffffffffffffffffffffffffffff168273ffffffffffffffffffffffffffffffffffffffff161415611a94576040517f08c379a000000000000000000000000000000000000000000000000000000000815260040180806020018281038252601f8152602001807f45524332303a206d696e7420746f20746865207a65726f20616464726573730081525060200191505060405180910390fd5b611aa060008383611ddb565b611ab58160025461196990919063ffffffff16565b600281905550611b0c816000808573ffffffffffffffffffffffffffffffffffffffff1673ffffffffffffffffffffffffffffffffffffffff1681526020019081526020016000205461196990919063ffffffff16565b6000808473ffffffffffffffffffffffffffffffffffffffff1673ffffffffffffffffffffffffffffffffffffffff168152602001908152602001600020819055508173ffffffffffffffffffffffffffffffffffffffff16600073ffffffffffffffffffffffffffffffffffffffff167fddf252ad1be2c89b69c2b068fc378daa952ba7f163c4a11628f55a4df523b3ef836040518082815260200191505060405180910390a35050565b600073ffffffffffffffffffffffffffffffffffffffff168273ffffffffffffffffffffffffffffffffffffffff161415611c3e576040517f08c379a00000000000000000000000000000000000000000000000000000000081526004018080602001828103825260218152602001806122096021913960400191505060405180910390fd5b611c4a82600083611ddb565b611cb581604051806060016040528060228152602001612147602291396000808673ffffffffffffffffffffffffffffffffffffffff1673ffffffffffffffffffffffffffffffffffffffff168152602001908152602001600020546117879092919063ffffffff16565b6000808473ffffffffffffffffffffffffffffffffffffffff1673ffffffffffffffffffffffffffffffffffffffff16815260200190815260200160002081905550611d0c81600254611e4090919063ffffffff16565b600281905550600073ffffffffffffffffffffffffffffffffffffffff168273ffffffffffffffffffffffffffffffffffffffff167fddf252ad1be2c89b69c2b068fc378daa952ba7f163c4a11628f55a4df523b3ef836040518082815260200191505060405180910390a35050565b6000611d8b8360000183611ec3565b60001c905092915050565b6000611dbe836000018373ffffffffffffffffffffffffffffffffffffffff1660001b611f46565b905092915050565b6000611dd482600001611f69565b9050919050565b505050565b6000611e08836000018373ffffffffffffffffffffffffffffffffffffffff1660001b611f7a565b905092915050565b6000611e38836000018373ffffffffffffffffffffffffffffffffffffffff1660001b611fea565b905092915050565b600082821115611eb8576040517f08c379a000000000000000000000000000000000000000000000000000000000815260040180806020018281038252601e8152602001807f536166654d6174683a207375627472616374696f6e206f766572666c6f77000081525060200191505060405180910390fd5b818303905092915050565b600081836000018054905011611f24576040517f08c379a00000000000000000000000000000000000000000000000000000000081526004018080602001828103825260228152602001806120d36022913960400191505060405180910390fd5b826000018281548110611f3357fe5b9060005260206000200154905092915050565b600080836001016000848152602001908152602001600020541415905092915050565b600081600001805490509050919050565b6000611f868383611f46565b611fdf578260000182908060018154018082558091505060019003906000526020600020016000909190919091505582600001805490508360010160008481526020019081526020016000208190555060019050611fe4565b600090505b92915050565b600080836001016000848152602001908152602001600020549050600081146120c6576000600182039050600060018660000180549050039050600086600001828154811061203557fe5b906000526020600020015490508087600001848154811061205257fe5b906000526020600020018190555060018301876001016000838152602001908152602001600020819055508660000180548061208a57fe5b600190038181906000526020600020016000905590558660010160008781526020019081526020016000206000905560019450505050506120cc565b60009150505b9291505056fe456e756d657261626c655365743a20696e646578206f7574206f6620626f756e647345524332303a207472616e7366657220746f20746865207a65726f2061646472657373416363657373436f6e74726f6c3a2073656e646572206d75737420626520616e2061646d696e20746f206772616e7445524332303a206275726e20616d6f756e7420657863656564732062616c616e636545524332303a20617070726f766520746f20746865207a65726f206164647265737345524332303a207472616e7366657220616d6f756e7420657863656564732062616c616e6365416363657373436f6e74726f6c3a2073656e646572206d75737420626520616e2061646d696e20746f207265766f6b6545524332303a207472616e7366657220616d6f756e74206578636565647320616c6c6f77616e636545524332303a206275726e2066726f6d20746865207a65726f206164647265737345524332303a207472616e736665722066726f6d20746865207a65726f206164647265737345524332303a20617070726f76652066726f6d20746865207a65726f206164647265737345524332303a2064656372656173656420616c6c6f77616e63652062656c6f77207a65726f416363657373436f6e74726f6c3a2063616e206f6e6c792072656e6f756e636520726f6c657320666f722073656c66a2646970667358221220c37b92177e144ad5794d50d7d0645b3361e71be05d9b5faa17666559260a43d764736f6c6343000602003360806040523480156200001157600080fd5b50604051620020aa380380620020aa833981810160405260608110156200003757600080fd5b81019080805160405193929190846401000000008211156200005857600080fd5b838201915060208201858111156200006f57600080fd5b82518660018202830111640100000000821117156200008d57600080fd5b8083526020830192505050908051906020019080838360005b83811015620000c3578082015181840152602081019050620000a6565b50505050905090810190601f168015620000f15780820380516001836020036101000a031916815260200191505b50604052602001805160405193929190846401000000008211156200011557600080fd5b838201915060208201858111156200012c57600080fd5b82518660018202830111640100000000821117156200014a57600080fd5b8083526020830192505050908051906020019080838360005b838110156200018057808201518184015260208101905062000163565b50505050905090810190601f168015620001ae5780820380516001836020036101000a031916815260200191505b50604052602001805190602001909291905050508083838160039080519060200190620001dd92919062000260565b508060049080519060200190620001f692919062000260565b506012600560006101000a81548160ff021916908360ff160217905550505080600560016101000a81548173ffffffffffffffffffffffffffffffffffffffff021916908373ffffffffffffffffffffffffffffffffffffffff160217905550505050506200030f565b828054600181600116156101000203166002900490600052602060002090601f016020900481019282601f10620002a357805160ff1916838001178555620002d4565b82800160010185558215620002d4579182015b82811115620002d3578251825591602001919060010190620002b6565b5b509050620002e39190620002e7565b5090565b6200030c91905b8082111562000308576000816000905550600101620002ee565b5090565b90565b611d8b806200031f6000396000f3fe608060405234801561001057600080fd5b50600436106100ea5760003560e01c8063395093511161008c57806395d89b411161006657806395d89b4114610474578063a457c2d7146104f7578063a9059cbb1461055d578063dd62ed3e146105c3576100ea565b8063395093511461036c5780636f307dc3146103d257806370a082311461041c576100ea565b8063205c2878116100c8578063205c2878146101f657806323b872dd1461025c5780632f4f21e2146102e2578063313ce56714610348576100ea565b806306fdde03146100ef578063095ea7b31461017257806318160ddd146101d8575b600080fd5b6100f761063b565b6040518080602001828103825283818151815260200191508051906020019080838360005b8381101561013757808201518184015260208101905061011c565b50505050905090810190601f1680156101645780820380516001836020036101000a031916815260200191505b509250505060405180910390f35b6101be6004803603604081101561018857600080fd5b81019080803573ffffffffffffffffffffffffffffffffffffffff169060200190929190803590602001909291905050506106dd565b604051808215151515815260200191505060405180910390f35b6101e06106fb565b6040518082815260200191505060405180910390f35b6102426004803603604081101561020c57600080fd5b81019080803573ffffffffffffffffffffffffffffffffffffffff16906020019092919080359060200190929190505050610705565b604051808215151515815260200191505060405180910390f35b6102c86004803603606081101561027257600080fd5b81019080803573ffffffffffffffffffffffffffffffffffffffff169060200190929190803573ffffffffffffffffffffffffffffffffffffffff1690602001909291908035906020019092919050505061074f565b604051808215151515815260200191505060405180910390f35b61032e600480360360408110156102f857600080fd5b81019080803573ffffffffffffffffffffffffffffffffffffffff16906020019092919080359060200190929190505050610828565b604051808215151515815260200191505060405180910390f35b610350610873565b604051808260ff1660ff16815260200191505060405180910390f35b6103b86004803603604081101561038257600080fd5b81019080803573ffffffffffffffffffffffffffffffffffffffff1690602001909291908035906020019092919050505061092c565b604051808215151515815260200191505060405180910390f35b6103da6109df565b604051808273ffffffffffffffffffffffffffffffffffffffff1673ffffffffffffffffffffffffffffffffffffffff16815260200191505060405180910390f35b61045e6004803603602081101561043257600080fd5b81019080803573ffffffffffffffffffffffffffffffffffffffff169060200190929190505050610a05565b6040518082815260200191505060405180910390f35b61047c610a4d565b6040518080602001828103825283818151815260200191508051906020019080838360005b838110156104bc5780820151818401526020810190506104a1565b50505050905090810190601f1680156104e95780820380516001836020036101000a031916815260200191505b509250505060405180910390f35b6105436004803603604081101561050d57600080fd5b81019080803573ffffffffffffffffffffffffffffffffffffffff16906020019092919080359060200190929190505050610aef565b604051808215151515815260200191505060405180910390f35b6105a96004803603604081101561057357600080fd5b81019080803573ffffffffffffffffffffffffffffffffffffffff16906020019092919080359060200190929190505050610bbc565b604051808215151515815260200191505060405180910390f35b610625600480360360408110156105d957600080fd5b81019080803573ffffffffffffffffffffffffffffffffffffffff169060200190929190803573ffffffffffffffffffffffffffffffffffffffff169060200190929190505050610bda565b6040518082815260200191505060405180910390f35b606060038054600181600116156101000203166002900480601f0160208091040260200160405190810160405280929190818152602001828054600181600116156101000203166002900480156106d35780601f106106a8576101008083540402835291602001916106d3565b820191906000526020600020905b8154815290600101906020018083116106b657829003601f168201915b5050505050905090565b60006106f16106ea610c61565b8484610c69565b6001905092915050565b6000600254905090565b6000610718610712610c61565b83610e60565b610745600560019054906101000a900473ffffffffffffffffffffffffffffffffffffffff168484611024565b6001905092915050565b600061075c8484846110dc565b61081d84610768610c61565b61081885604051806060016040528060288152602001611c7560289139600160008b73ffffffffffffffffffffffffffffffffffffffff1673ffffffffffffffffffffffffffffffffffffffff16815260200190815260200160002060006107ce610c61565b73ffffffffffffffffffffffffffffffffffffffff1673ffffffffffffffffffffffffffffffffffffffff1681526020019081526020016000205461139d9092919063ffffffff16565b610c69565b600190509392505050565b600061085f600560019054906101000a900473ffffffffffffffffffffffffffffffffffffffff16610858610c61565b3085611457565b6108698383611544565b6001905092915050565b6000600560019054906101000a900473ffffffffffffffffffffffffffffffffffffffff1673ffffffffffffffffffffffffffffffffffffffff1663313ce5676040518163ffffffff1660e01b815260040160206040518083038186803b1580156108dd57600080fd5b505afa92505050801561091157506040513d60208110156108fd57600080fd5b810190808051906020019092919050505060015b6109245761091d61170b565b9050610929565b809150505b90565b60006109d5610939610c61565b846109d0856001600061094a610c61565b73ffffffffffffffffffffffffffffffffffffffff1673ffffffffffffffffffffffffffffffffffffffff16815260200190815260200160002060008973ffffffffffffffffffffffffffffffffffffffff1673ffffffffffffffffffffffffffffffffffffffff1681526020019081526020016000205461172290919063ffffffff16565b610c69565b6001905092915050565b600560019054906101000a900473ffffffffffffffffffffffffffffffffffffffff1681565b60008060008373ffffffffffffffffffffffffffffffffffffffff1673ffffffffffffffffffffffffffffffffffffffff168152602001908152602001600020549050919050565b606060048054600181600116156101000203166002900480601f016020809104026020016040519081016040528092919081815260200182805460018160011615610100020316600290048015610ae55780601f10610aba57610100808354040283529160200191610ae5565b820191906000526020600020905b815481529060010190602001808311610ac857829003601f168201915b5050505050905090565b6000610bb2610afc610c61565b84610bad85604051806060016040528060258152602001611d316025913960016000610b26610c61565b73ffffffffffffffffffffffffffffffffffffffff1673ffffffffffffffffffffffffffffffffffffffff16815260200190815260200160002060008a73ffffffffffffffffffffffffffffffffffffffff1673ffffffffffffffffffffffffffffffffffffffff1681526020019081526020016000205461139d9092919063ffffffff16565b610c69565b6001905092915050565b6000610bd0610bc9610c61565b84846110dc565b6001905092915050565b6000600160008473ffffffffffffffffffffffffffffffffffffffff1673ffffffffffffffffffffffffffffffffffffffff16815260200190815260200160002060008373ffffffffffffffffffffffffffffffffffffffff1673ffffffffffffffffffffffffffffffffffffffff16815260200190815260200160002054905092915050565b600033905090565b600073ffffffffffffffffffffffffffffffffffffffff168373ffffffffffffffffffffffffffffffffffffffff161415610cef576040517f08c379a0000000000000000000000000000000000000000000000000000000008152600401808060200182810382526024815260200180611ce36024913960400191505060405180910390fd5b600073ffffffffffffffffffffffffffffffffffffffff168273ffffffffffffffffffffffffffffffffffffffff161415610d75576040517f08c379a0000000000000000000000000000000000000000000000000000000008152600401808060200182810382526022815260200180611c076022913960400191505060405180910390fd5b80600160008573ffffffffffffffffffffffffffffffffffffffff1673ffffffffffffffffffffffffffffffffffffffff16815260200190815260200160002060008473ffffffffffffffffffffffffffffffffffffffff1673ffffffffffffffffffffffffffffffffffffffff168152602001908152602001600020819055508173ffffffffffffffffffffffffffffffffffffffff168373ffffffffffffffffffffffffffffffffffffffff167f8c5be1e5ebec7d5bd14f71427d1e84f3dd0314c0f7b2291e5b200ac8c7c3b925836040518082815260200191505060405180910390a3505050565b600073ffffffffffffffffffffffffffffffffffffffff168273ffffffffffffffffffffffffffffffffffffffff161415610ee6576040517f08c379a0000000000000000000000000000000000000000000000000000000008152600401808060200182810382526021815260200180611c9d6021913960400191505060405180910390fd5b610ef2826000836117aa565b610f5d81604051806060016040528060228152602001611be5602291396000808673ffffffffffffffffffffffffffffffffffffffff1673ffffffffffffffffffffffffffffffffffffffff1681526020019081526020016000205461139d9092919063ffffffff16565b6000808473ffffffffffffffffffffffffffffffffffffffff1673ffffffffffffffffffffffffffffffffffffffff16815260200190815260200160002081905550610fb4816002546117af90919063ffffffff16565b600281905550600073ffffffffffffffffffffffffffffffffffffffff168273ffffffffffffffffffffffffffffffffffffffff167fddf252ad1be2c89b69c2b068fc378daa952ba7f163c4a11628f55a4df523b3ef836040518082815260200191505060405180910390a35050565b6110d78363a9059cbb60e01b8484604051602401808373ffffffffffffffffffffffffffffffffffffffff1673ffffffffffffffffffffffffffffffffffffffff16815260200182815260200192505050604051602081830303815290604052907bffffffffffffffffffffffffffffffffffffffffffffffffffffffff19166020820180517bffffffffffffffffffffffffffffffffffffffffffffffffffffffff8381831617835250505050611832565b505050565b600073ffffffffffffffffffffffffffffffffffffffff168373ffffffffffffffffffffffffffffffffffffffff161415611162576040517f08c379a0000000000000000000000000000000000000000000000000000000008152600401808060200182810382526025815260200180611cbe6025913960400191505060405180910390fd5b600073ffffffffffffffffffffffffffffffffffffffff168273ffffffffffffffffffffffffffffffffffffffff1614156111e8576040517f08c379a0000000000000000000000000000000000000000000000000000000008152600401808060200182810382526023815260200180611bc26023913960400191505060405180910390fd5b6111f38383836117aa565b61125e81604051806060016040528060268152602001611c29602691396000808773ffffffffffffffffffffffffffffffffffffffff1673ffffffffffffffffffffffffffffffffffffffff1681526020019081526020016000205461139d9092919063ffffffff16565b6000808573ffffffffffffffffffffffffffffffffffffffff1673ffffffffffffffffffffffffffffffffffffffff168152602001908152602001600020819055506112f1816000808573ffffffffffffffffffffffffffffffffffffffff1673ffffffffffffffffffffffffffffffffffffffff1681526020019081526020016000205461172290919063ffffffff16565b6000808473ffffffffffffffffffffffffffffffffffffffff1673ffffffffffffffffffffffffffffffffffffffff168152602001908152602001600020819055508173ffffffffffffffffffffffffffffffffffffffff168373ffffffffffffffffffffffffffffffffffffffff167fddf252ad1be2c89b69c2b068fc378daa952ba7f163c4a11628f55a4df523b3ef836040518082815260200191505060405180910390a3505050565b600083831115829061144a576040517f08c379a00000000000000000000000000000000000000000000000000000000081526004018080602001828103825283818151815260200191508051906020019080838360005b8381101561140f5780820151818401526020810190506113f4565b50505050905090810190601f16801561143c5780820380516001836020036101000a031916815260200191505b509250505060405180910390fd5b5082840390509392505050565b61153e846323b872dd60e01b858585604051602401808473ffffffffffffffffffffffffffffffffffffffff1673ffffffffffffffffffffffffffffffffffffffff1681526020018373ffffffffffffffffffffffffffffffffffffffff1673ffffffffffffffffffffffffffffffffffffffff1681526020018281526020019350505050604051602081830303815290604052907bffffffffffffffffffffffffffffffffffffffffffffffffffffffff19166020820180517bffffffffffffffffffffffffffffffffffffffffffffffffffffffff8381831617835250505050611832565b50505050565b600073ffffffffffffffffffffffffffffffffffffffff168273ffffffffffffffffffffffffffffffffffffffff1614156115e7576040517f08c379a000000000000000000000000000000000000000000000000000000000815260040180806020018281038252601f8152602001807f45524332303a206d696e7420746f20746865207a65726f20616464726573730081525060200191505060405180910390fd5b6115f3600083836117aa565b6116088160025461172290919063ffffffff16565b60028190555061165f816000808573ffffffffffffffffffffffffffffffffffffffff1673ffffffffffffffffffffffffffffffffffffffff1681526020019081526020016000205461172290919063ffffffff16565b6000808473ffffffffffffffffffffffffffffffffffffffff1673ffffffffffffffffffffffffffffffffffffffff168152602001908152602001600020819055508173ffffffffffffffffffffffffffffffffffffffff16600073ffffffffffffffffffffffffffffffffffffffff167fddf252ad1be2c89b69c2b068fc378daa952ba7f163c4a11628f55a4df523b3ef836040518082815260200191505060405180910390a35050565b6000600560009054906101000a900460ff16905090565b6000808284019050838110156117a0576040517f08c379a000000000000000000000000000000000000000000000000000000000815260040180806020018281038252601b8152602001807f536166654d6174683a206164646974696f6e206f766572666c6f77000000000081525060200191505060405180910390fd5b8091505092915050565b505050565b600082821115611827576040517f08c379a000000000000000000000000000000000000000000000000000000000815260040180806020018281038252601e8152602001807f536166654d6174683a207375627472616374696f6e206f766572666c6f77000081525060200191505060405180910390fd5b818303905092915050565b6060611894826040518060400160405280602081526020017f5361666545524332303a206c6f772d6c6576656c2063616c6c206661696c65648152508573ffffffffffffffffffffffffffffffffffffffff166119219092919063ffffffff16565b905060008151111561191c578080602001905160208110156118b557600080fd5b810190808051906020019092919050505061191b576040517f08c379a000000000000000000000000000000000000000000000000000000000815260040180806020018281038252602a815260200180611d07602a913960400191505060405180910390fd5b5b505050565b60606119308484600085611939565b90509392505050565b606082471015611994576040517f08c379a0000000000000000000000000000000000000000000000000000000008152600401808060200182810382526026815260200180611c4f6026913960400191505060405180910390fd5b61199d85611ae2565b611a0f576040517f08c379a000000000000000000000000000000000000000000000000000000000815260040180806020018281038252601d8152602001807f416464726573733a2063616c6c20746f206e6f6e2d636f6e747261637400000081525060200191505060405180910390fd5b600060608673ffffffffffffffffffffffffffffffffffffffff1685876040518082805190602001908083835b60208310611a5f5780518252602082019150602081019050602083039250611a3c565b6001836020036101000a03801982511681845116808217855250505050505090500191505060006040518083038185875af1925050503d8060008114611ac1576040519150601f19603f3d011682016040523d82523d6000602084013e611ac6565b606091505b5091509150611ad6828286611af5565b92505050949350505050565b600080823b905060008111915050919050565b60608315611b0557829050611bba565b600083511115611b185782518084602001fd5b816040517f08c379a00000000000000000000000000000000000000000000000000000000081526004018080602001828103825283818151815260200191508051906020019080838360005b83811015611b7f578082015181840152602081019050611b64565b50505050905090810190601f168015611bac5780820380516001836020036101000a031916815260200191505b509250505060405180910390fd5b939250505056fe45524332303a207472616e7366657220746f20746865207a65726f206164647265737345524332303a206275726e20616d6f756e7420657863656564732062616c616e636545524332303a20617070726f766520746f20746865207a65726f206164647265737345524332303a207472616e7366657220616d6f756e7420657863656564732062616c616e6365416464726573733a20696e73756666696369656e742062616c616e636520666f722063616c6c45524332303a207472616e7366657220616d6f756e74206578636565647320616c6c6f77616e636545524332303a206275726e2066726f6d20746865207a65726f206164647265737345524332303a207472616e736665722066726f6d20746865207a65726f206164647265737345524332303a20617070726f76652066726f6d20746865207a65726f20616464726573735361666545524332303a204552433230206f7065726174696f6e20646964206e6f74207375636365656445524332303a2064656372656173656420616c6c6f77616e63652062656c6f77207a65726fa2646970667358221220af274874cdc27b3989395c27357e63b448349f95d42a493f9d56b2654e13ad7364736f6c634300060200334465706c6f79696e672045524332302057726170706572207769746820616464726573733aa264697066735822122016bde8d0dfa2dc40847b2fa31ea0b3d6e3dd18f0e60c96ecf405ea550346196164736f6c63430006020033",
  "devdoc": {
    "methods": {
      "getInstantiationCount(address)": {
        "details": "Returns number of tokens by creator.",
        "params": {
          "creator": "Contract creator."
        },
        "returns": {
          "_0": "Returns number of tokens by creator."
        }
      }
    }
  },
  "userdoc": {
    "methods": {}
  },
  "storageLayout": {
    "storage": [
      {
        "astId": 2913,
        "contract": "contracts/TokenFactory.sol:TokenFactory",
        "label": "isInstantiation",
        "offset": 0,
        "slot": "0",
        "type": "t_mapping(t_address,t_bool)"
      },
      {
        "astId": 2918,
        "contract": "contracts/TokenFactory.sol:TokenFactory",
        "label": "tokens",
        "offset": 0,
        "slot": "1",
        "type": "t_mapping(t_address,t_array(t_address)dyn_storage)"
      },
      {
        "astId": 2922,
        "contract": "contracts/TokenFactory.sol:TokenFactory",
        "label": "isInstantiationWrapper",
        "offset": 0,
        "slot": "2",
        "type": "t_mapping(t_address,t_bool)"
      },
      {
        "astId": 2927,
        "contract": "contracts/TokenFactory.sol:TokenFactory",
        "label": "wrapperTokens",
        "offset": 0,
        "slot": "3",
        "type": "t_mapping(t_address,t_array(t_address)dyn_storage)"
      },
      {
        "astId": 2459,
        "contract": "contracts/TokenFactory.sol:TokenFactory",
        "label": "MSW",
        "offset": 0,
        "slot": "4",
        "type": "t_address"
      },
      {
        "astId": 2461,
        "contract": "contracts/TokenFactory.sol:TokenFactory",
        "label": "Deployer",
        "offset": 0,
        "slot": "5",
        "type": "t_address"
      },
      {
        "astId": 2463,
        "contract": "contracts/TokenFactory.sol:TokenFactory",
        "label": "latestWrapper",
        "offset": 0,
        "slot": "6",
        "type": "t_contract(IERC20)1163"
      },
      {
        "astId": 2465,
        "contract": "contracts/TokenFactory.sol:TokenFactory",
        "label": "latestToken",
        "offset": 0,
        "slot": "7",
        "type": "t_contract(ERC20)1094"
      },
      {
        "astId": 2467,
        "contract": "contracts/TokenFactory.sol:TokenFactory",
        "label": "tokenManager",
        "offset": 0,
        "slot": "8",
        "type": "t_contract(ITokenManager)2315"
      },
      {
        "astId": 2469,
        "contract": "contracts/TokenFactory.sol:TokenFactory",
        "label": "tokenManagerLinker",
        "offset": 0,
        "slot": "9",
        "type": "t_contract(ITokenManagerLinker)2335"
      },
      {
        "astId": 2472,
        "contract": "contracts/TokenFactory.sol:TokenFactory",
        "label": "TokenManagerLinker",
        "offset": 0,
        "slot": "10",
        "type": "t_address"
      },
      {
        "astId": 2475,
        "contract": "contracts/TokenFactory.sol:TokenFactory",
        "label": "TokenManager",
        "offset": 0,
        "slot": "11",
        "type": "t_address"
      }
    ],
    "types": {
      "t_address": {
        "encoding": "inplace",
        "label": "address",
        "numberOfBytes": "20"
      },
      "t_array(t_address)dyn_storage": {
        "base": "t_address",
        "encoding": "dynamic_array",
        "label": "address[]",
        "numberOfBytes": "32"
      },
      "t_bool": {
        "encoding": "inplace",
        "label": "bool",
        "numberOfBytes": "1"
      },
      "t_contract(ERC20)1094": {
        "encoding": "inplace",
        "label": "contract ERC20",
        "numberOfBytes": "20"
      },
      "t_contract(IERC20)1163": {
        "encoding": "inplace",
        "label": "contract IERC20",
        "numberOfBytes": "20"
      },
      "t_contract(ITokenManager)2315": {
        "encoding": "inplace",
        "label": "contract ITokenManager",
        "numberOfBytes": "20"
      },
      "t_contract(ITokenManagerLinker)2335": {
        "encoding": "inplace",
        "label": "contract ITokenManagerLinker",
        "numberOfBytes": "20"
      },
      "t_mapping(t_address,t_array(t_address)dyn_storage)": {
        "encoding": "mapping",
        "key": "t_address",
        "label": "mapping(address => address[])",
        "numberOfBytes": "32",
        "value": "t_array(t_address)dyn_storage"
      },
      "t_mapping(t_address,t_bool)": {
        "encoding": "mapping",
        "key": "t_address",
        "label": "mapping(address => bool)",
        "numberOfBytes": "32",
        "value": "t_bool"
      }
    }
  }
}